:20000000483F0020F18D000001CA011001CA011001CA011001CA011001CA011001CA011093
:1C00200001CA011001CA011001CA011001CA011001CA011001CA01103FCA011082
:20003C009EB524482249244A08300860234917880968D7B1224A1268114216D0214A126864
:20005C00114204D1204A1268128811420DD01F4A4FF489771468009709A301931C4F1D4BDC
:20007C00029018683A8801A3A0479EBD627574746F6E5F736572766963652E6300C046C067
:20009C00526567697374657265642063616C6C6261636B7320746F206170706C6963617405
:2000BC00696F6E2E2053747275637420257000C0F01C0020A405002092DC000024DD000032
:2000DC00400500003C0500004405000034DD0000840500003CDD0000014908607047C04613
:0400FC0000300020B0
:200100003C000000000000000000000034010000000000000000000001000000000000006D
:1C01200000000000000000000000000001000000000000000800000000000000BA
:20013C00340000000000000000000000680100000000000000000000010000000000000005
:14015C00010000000000000000000000080000000000000086
:2001700030000000000000000000000098010000040000000000000001000000FFFFFFFFA5
:10019000FF00000001000000080000000000000057
:2001A0002C0000000000000000000000C4010000040000000000000001000000FFFFFFFF4D
:0C01C000FFFFFFFF08000000000000002F
:2001CC0034050000E401000099A1011095A70110A5C2011009B2011045B80110000000000B
:0801EC00000000002E000000DD
:2001F400280000000000000000000000140200000000000000000000FFFFFFFF00000000B1
:080214000800000000000000DA
:20021C00300500003002000069C201106DC101101FC2011095BA011000000000000000008E
:04023C002C00000092
:20024000300500005402000075C20110A9B601109DBF011049B601100000000000000000DE
:040260002D0000006D
:200264002400000000000000000000008002000000000000000000000000000008000000CC
:040284000000000076
:20028800240000000000000000000000A40200000000000000000000000000000800000084
:0402A8000000000052
:2002AC00240000000000000000000000C8020000000000000100000000000000080000003B
:0402CC00000000002E
:2002D00000000000C01A00200400000000000000000000002000000070010000300000004F
:2002F0001C020000EC1A00200400000000000000000000000C00000030040000180000004E
:2003100040020000F81A0020040000000000000000000000240000004804000018000000CD
:2003300000000000001B002004000000000000000000000010000000A00100002C00000091
:20035000CC010000081B0020040000000000000000000000200000006402000024000000CF
:20037000FFFFFFFF281B002004000000000000000000000028000000880200002400000034
:20039000FFFFFFFF581B0020040000000000000000000000580000003C01000034000000F1
:2003B000FFFFFFFF601B002004000000000000000000000010000000600400001800000006
:2003D000FFFFFFFF681B00200400000000000000000000001C000000AC020000240000007C
:2003F000FFFFFFFF701B002004000000000000000000000038000000F401000028000000ED
:20041000FFFFFFFF781B002004000000000000000000000054000000000100003C00000088
:1804300018000000000000000000000040040000080000000000000050
:1804480018000000000000000000000058040000080000000000000020
:18046000180000000000000000000000700400000800000000000000F0
:0804780002000000F8DC0000A6
:040480000BF0C5BAFE
:040484000100000073
:0404880000008C0FD5
:04048C000000BC0FA1
:040490003200000036
:040494000100000063
:04049800C81A00205E
:04049C00000200005A
:0404A0000000000058
:0404A40001CA011078
:0404A8000000000050
:0404AC00000000004C
:0404B0000800000040
:0404B40000007612BC
:0404B800381F0020C9
:0404BC00010000003B
:0404C000101B0020ED
:0404C400080000002C
:0404C8000000000030
:0404CC00000000002C
:0404D0000000000028
:0404D4000000000024
:0404D8000000000020
:0404DC00010000001B
:0404E000A01F002039
:0404E400060000000E
:0404E800010000000F
:0404EC00A01E00202E
:0404F0000000000008
:0404F4000000000004
:0404F80000020000FE
:0404FC0000000000FC
:02050000704742
:020502002800CF
:020504000100F4
:020506002400CF
:020508002C00C5
:02050A002D00C2
:02050C002E00BF
:02050E000100EA
:0105100001E9
:0805140003000000E4DC00001C
:08051C000000000000000000D7
:040524000000930D33
:040528000000AD0D15
:04052C0087C401106F
:04053000380500008A
:040534003805000086
:0405380000000000BF
:04053C0090610000CA
:0405400090610000C6
:0405440000000000B3
:04054800101B002064
:04054C008DB5000069
:040550002000000087
:040554002CDC00009B
:0405580070DA000055
:04055C000DC30110BA
:04056000E9BA0000F4
:04056400EBBA0000EE
:0405680099C801101D
:04056C009BC8011017
:040570000000000087
:0405740058BC00006F
:0405780068D800003F
:04057C0080D8000023
:0405800050D800004F
:020584000280F3
:020586000380F0
:02058800C0179A
:02058A0001006E
:01058C00016D
:040590000000000067
:040594000000000063
:04059800000000005F
:04059C00000000005B
:0405A000D1BA0000CC
:0405A400819700003B
:0405A80031A8000076
:0405AC0069A0000042
:0405B000679D000043
:0405B40099A000000A
:0405B800B17B000013
:0405BC00C7B70000BD
:0405C0002180000096
:0405C40011C8011049
:0405C80021C8011035
:0405CC000800000023
:0405D0002400000003
:0405D400180000000B
:0405D80028000000F7
:0405DC0020000000FB
:0405E0003C000000DB
:0405E4000C00000007
:0405E80034000000DB
:2005EC002DE9F04F09AFADF13C0D00240FF2F018DFF8FCB1DFF800A208903D880B93387925
:20060C000A92DFF8F8910C90FF200E9008780991022809D10846594640680F88008842F66F
:20062C000216864200F0EC80099808F065F85946DFF8C0B106469AA0002E0F880D963ED099
:20064C00761E1FD058460168D7B1A6480068014216D0A5480068014204D1A44800680088B4
:20066C0001420DD0A44840F22927A5A605680097A04B01969E4F02941A8838684346A847D2
:20068C000A200AE14A465146002F4FF014090968079202F1040A3DD0924A1268114239D0BD
:2006AC00914A1268114204D1904A12681288114230D0924A16684FF4097398A21AE04A4693
:2006CC0051464FF028090968079202F1020A0FB3844A126811421DD0834A1268114204D145
:2006EC00824A12681288114214D0844A166840F216238CA2009301900292089803900B9B61
:20070C00049305950C987B4B06901A88784B18684346B047A9452FDD0B9E7619B1451FDA16
:20072C0058460168D7B16F480068014216D06E480068014204D16D480068008801420DD0DB
:20074C006D484FF40D7779A306680097694F0193674B02943A8818684346B0470D242AE05F
:20076C0009980A990B9AC068281805F035FDAAF800600D980E901EE058460168D7B1594882
:20078C000068014216D058480068014204D157480068008801420DD0574840F22F276CA3B7
:2007AC0006680097534F0193514B02943A8818684346B04707240E98FF280ED007988068A1
:2007CC0058B107684FB10B980D9A0A9B2D18A8B20090089841F23011B84720465DE0C046BB
:2007EC00646174615F736572766963652E6300C092DC000020DD000024DD0000A41B002067
:20080C0051460868002F82462BD0364800681AEA000F26D0344800681AEA000F05D133489C
:20082C00006800881AEA000F1BD00C98FE280CBF50A757A7099807F05FFF304940F2FB1385
:20084C000E68009355A20192029008980390049728490594264B06940A8818685146434652
:20086C00B04708980B9B09990A9A009508F00CF94A4608321768061C0ED16FB1786858B104
:20088C00099807F039FF02460B980A9B00907C68089841F23011A047F0B20FB0BDE8F08FF8
:2008AC005772697465417474724342203A20257320636F6E6E48616E646C652825642920DB
:2008CC006C656E28256429206F666673657428256429206D6574686F642830782530327802
:2008EC002900C046400500003C050000440500003CDD00008405000034DD000038DD000026
:20090C0041747472696275746520776173206E6F7420666F756E642E00C046C0537472656D
:20092C00616D00C0537472696E6700C0496E76616C69642076616C7565206C656E67746840
:20094C00207761732072656365697665642E00C0416E20696E76616C6964206F66667365E2
:20096C007420776173207265717565737465642E00C046C02D20726573746F72696E67205C
:20098C00626F6E64656420737461746500C046C02D204F54412077726974650057726974B6
:2009AC0065417474724342202843434344293A20706172616D3A20256420636F6E6E486163
:2009CC006E646C653A202564202573002DE9FE4FB84C0F460646F80B80F04781B80880F05A
:2009EC00D480B54DDFF8D892DFF8E0B2DFF8E882DFF8F4A22C68B80F67D2B0480678002E05
:200A0C0047D1380947D3AF4801264946067000240C70204605F08FFBAB48FFF765FBAC4971
:200A2C00224658460BF037F8AA48017801291CD141460B78CBB9A94E306880B10AF0F6FCBE
:200A4C002B68A8493668A64D0A68C01A000B82182860B2EBC61F28BF0C6007D20A60A448F8
:200A6C004FF000510AF074FC2CE00670504640F609010180417B01F0F00141F00101417312
:200A8C004480017B01F0F00101734460974E306018E0390914D2B80BC0F004819D48001D81
:200AAC000BF004F8061C08D0706830B17468F068B6F91C1098A20CCAA04727F40057F1E037
:200ACC000021017027F00807ECE0ECB104200AF079F9C8B10AF0AAFC864A296810608142AC
:200AEC0026BF401A401E401A000BF060F06800F58D70F060F16840F6C410884203D340F2C9
:200B0C00EE228A4200D9F0600024D6F818C02C60BCF1000F10D050460D30007810F00F0F69
:200B2C000AD1708C40F60901814205D17CA20CCA30466FF48071E0476F49584622460AF05C
:200B4C00AAFF4546287850B10220ADF8000068460AF010F82C70BDF808006849088049461C
:200B6C000120674A674B087010781C70401C107019200AF073FD756925B16BA20CCA3046CD
:200B8C002146A84727F000578CE004F10C0A50460AF08CFF061C5FD008F03FFE7368B26977
:200BAC000025B561E3B1F37F42F002024FF00009904603F007035B1E07D05B1E03D09B1E42
:200BCC0006D15BA002E05CA000E05DA090E800037268F068B6F91C104B4694464246E047DA
:200BEC000BF030F88046B4F91200401C6FF31F306082E0681F30017801F07F0101705046CA
:200C0C000AF012FB40460BF019F8F068B0F99410B4F9122091421FD13B49097801291BD0CE
:200C2C0090F896409CB904688CB1384909680968B1F1FF3F10D0364909687030B4FBF1F108
:200C4C000AF0F8FFF06870300AF0F0FF04E080F89650284606F074FF50460AF027FF27F0D0
:200C6C00020708B147F002071CE00AF0EBFF0146204608300AF01AFF0646B46908460AF0DD
:200C8C00DDFFA0080CD25EB17068B169A143B16130B17568F068B6F91C1000232246A84784
:200CAC0027F480471FB1124839460AF051FBBDE8FE8FC046A82F0020F02F00201330002086
:200CCC000F3000200D300020C97200005C2F002085A90000113000200C300020EC2F002040
:200CEC00F82F0020E82F0020BC2F002000100440382E0020F42F0020D9480000002F0020D2
:200D0C00153000200E30002068200020FC2F002014DD0000A82F0020000000002000000009
:200D2C00000000000000000200000000000000040000000000000010000000000000004051
:200D4C0000000000000000202DE9F04F05467F487F4CDFF800A2DFF800B2DFF800E20F4625
:200D6C00ADF1340D0FF2302C0FF2F4182E1C01880892E068079145D0761E21D0BC48079F8D
:200D8C000168002F00F0DE80BA480068014200F0D980B9480068014205D150460068008863
:200DAC00014200F0CF80B6484FF49A7770A6046800975B460196B14F02951A88386879E0D0
:200DCC00261D814604F1100300294FF014020A96704609934FF001010B9205680C9142D08B
:200DEC00A448006805423ED0A3480068054204D1504600680088054235D04FF498736DA2A0
:200E0C0000211FE0A61C04F1240300294FF000020A96704609934FF028010C9205680B915D
:200E2C0021D09448006805421DD093480068054204D1504600680088054214D040F22513C3
:200E4C005EA20C998F4806680093CDF804C002920397049105915B46069188491A8808680C
:200E6C0043462946B0470B98B84226DA8048079E0168002E66D07F480068014262D07E4836
:200E8C000068014204D1504600680088014259D07C4840F24D16046800964AA5019502975B
:200EAC00002303930B9A04925E460593734D0693328828684346A04744E0099808993A46FD
:200ECC0005F08AF90C9E0A98002E07803AD00798294600282BD067480068014227D0664853
:200EEC000068014204D150460068008801421ED05846644B614E028899F802701D68306809
:200F0C00002F08BF3DA303D0012F0CBF42A348A34FF4A27600964BA70197B9F8006002962D
:200F2C00039300270497059743460697A8472078554F099904F14C0206230090484601979C
:200F4C0005F0E6F90DB0BDE8F08FC04692DC0000A41B0020440500008405000024DD0000AA
:200F6C00646174615F736572766963652E6300C0536574506172616D657465723A20506152
:200F8C0072616D6574657220232564206E6F742076616C69642E00C0536574506172616DDD
:200FAC0065746572203A202573206C656E3A20256400C04653747265616D00C0537472694D
:200FCC006E6700C04C656E677468206F75747369646520626F756E64733A204C656E3A2073
:200FEC002564204D696E4C656E3A202564204D61784C656E3A2025642E00C0461B5B3333BE
:20100C006D4E6F74692F696E642064697361626C65641B5B306D00C04E6F746966696361FB
:20102C0074696F6E20656E61626C656400C046C0496E6469636174696F6E20656E61626C15
:20104C00656400C0547279696E6720746F2073656E64206E6F74692F696E643A20636F6ED3
:20106C006E48616E646C652025782C20257300C020DD0000400500003C0500003CDD0000AD
:20108C0034DD000038DD0000351F00002DE9F04F09AFADF13C0D00900292388801911E46FC
:2010AC00ADF83400101C08BF002000F0828100274FF0010B00F10109B846DA466BE1252920
:2010CC0040F062811078521C02922D2818BFADF8228004D11078ADF822B0521C02923028C6
:2010EC001CBF4246434605D1114608785B465A46491C02912A284FF0FF3516D128460B935A
:20110C00346809900299CDF81C80E01C4B1C20F00300001D306050F8044C08780293002C96
:20112C0044BFADF822A0644212E0444609E0610001EBC40140180299A0F130040878491C7F
:20114C000291302801DB3A28F1DB0B93294609912E282BD10299087843462A2801F10101AB
:20116C00029111D1099330680794C01C20F00300001D306050F8045C002D48BF454608789C
:20118C000995491C029112E045460AE0690001EBC50140180299A0F1300508782B46491C1C
:2011AC000291302801DB3A28F0DB099307940AB122460B926C2804D04C2818BFADF8208040
:2011CC0005D102990878ADF820A0491C029103A9CDF8288007AB0E9164280C9300F08B8025
:2011EC00692800F08880BDF834C0752872D078286ED06F286AD0702850D063283DD0732838
:20120C001ED0019802990128A1F10101029115D96B490C68B5F1FF3F03D0A84288BF6D1CC9
:20122C0000D8019D0995684602A9324607ABA047C71902990A9801F1010974E040462AE027
:20124C0030680299C01C20F00300001D306050F8040CBCF1000F01F10109014608B956A0A5
:20126C0001460E910AF028F90A90B5F1FF3F5BD0A842C4BF281C0A9056E03068C01C20F0B3
:20128C000300001D306010F8040C5D468DF80C0002990A95584601F1010945E00820356888
:2012AC000B90E81C20F00300001D306050F8041C0822102307A806F08FF9401E0E90402174
:2012CC00017002990E9801F1010929E0082302E0102300E00A230299306801F10109C01CF3
:2012EC0020F00300001D306050F8041CAA42BCBF2A1C0B9210E00299306801F10109C01C75
:20130C0020F00300001D306050F8041CAA42BCBF2A1C0B926FF0090307A806F05DF90E904B
:20132C000C9D281A0A90079CBDF82250241A65B906E06846202101AA09F032F9079C7F1C14
:20134C00641E0794F5D50A9800E007940546401E0A9075B9BDF82200E8B10798401E079008
:20136C0019D46846202101AA09F01AF907987F1CF4E70E98411C0E91017801AA684609F04C
:20138C000FF90A987F1CE1E7684601AA09F008F97F1C09F101094A46029812F8011C401C95
:2013AC00002902907FF48BAE009808B14146017038460FB0BDE8F08F286E756C6C2900C044
:2013CC0048DD00002DE9F04F0546BD4CBB48DFF8FCB2DFF8FCA2DFF80093DFF804E30F46B9
:2013EC00ADF1340D0FF2FC1C0FF2BC182E1C089221690288E06807923CD0761E20D0B148B2
:20140C000168171C00F0CD80AF480068014200F0C88058460068014205D150460068008868
:20142C00014200F0BE80AD484FF4A57763A6046800974B460196A74F02951A883868AEE04A
:20144C00A61D7046A31C0B91002A0A96056809933AD09D480068054236D0584600680542E8
:20146C0004D150460068008805422DD04FF4A37363A217E00B90261D7046631C0A9605684C
:20148C0009930AB39048006805421DD058460068054204D1504600680088054214D040F26E
:2014AC003B1359A28F4806680093CDF804C0029203970021049105914B46069185491A8864
:2014CC00086843462946B047022F44DA002F42D0099808993A4604F07FFE079E0A98294628
:2014EC00002E07802BD078480068014227D058460068014204D150460068008801421ED0F9
:20150C004846784B0288734E0B981D6887783068002F08BF3EA703D0012F0CBF43A749A7E1
:20152C004FF4AD734CA600930B9B01961E880296039700270497059743460697A847207897
:20154C00694F099904F11402072300900B98019704F0DEFE25E05C4D5A4C07982A68216847
:20156C00061C1ED011421CD058460068014204D1504600680088014213D05A4840F26316F9
:20158C00046800963FA50195029701230393002204934E4605924F4D069232882868434685
:2015AC00A0470DB0BDE8F08F627574746F6E5F736572766963652E6300C046C05365745098
:2015CC006172616D657465723A20506172616D6574657220232564206E6F742076616C69AA
:2015EC00642E00C0536574506172616D65746572203A202573206C656E3A20256400C04666
:20160C00425554544F4E3100425554544F4E30001B5B33336D4E6F74692F696E642064696B
:20162C007361626C65641B5B306D00C04E6F74696669636174696F6E20656E61626C65648E
:20164C0000C046C0496E6469636174696F6E20656E61626C656400C0547279696E672074FA
:20166C006F2073656E64206E6F74692F696E643A20636F6E6E48616E646C652025782C2084
:20168C00257300C04C656E677468206F75747369646520626F756E64733A204C656E3A20E9
:2016AC002564204D696E4C656E3A202564204D61784C656E3A2025642E00C04692DC000065
:2016CC00E81C002020DD0000400500003C050000440500003CDD00008405000034DD00005B
:2016EC0024DD000038DD0000F51C00002DE9F04F09AFADF1440D08900B930A92099138799E
:20170C003F880C90084607F08FF8B249DFF8CCA2DFF8CCB2DFF8CC927B4B0E8800240FF243
:20172C00EC180546FF2084A2002D0E90B149B2480D953DD06D1E1FD0A7480168D6B15046AC
:20174C000068014216D058460068014204D148460068008801420DD0A54840F2ED176FA6F8
:20176C0005680097A14B01969F4F02941A8838684346A8470A20C4E000F1040C002E079004
:20178C000968CDF83CC03CD050460068014238D058460068014204D14846006800880142D7
:2017AC002FD018464FF4F4730568009373A319E000F1020C07900968CDF83CC00EB35046E8
:2017CC00006801421DD058460068014204D1484600680088014214D018464FF4ED73056834
:2017EC00009368A301920293089803900B9A049205970C987D4B06901A887B4B186843469A
:20180C00A847002F4BD10B9D60A2ED19022D27DAC5B90C98182818BF122813D150466E49FE
:20182C0000680968002E38D0014236D058460068014204D148460068008801422DD040F236
:20184C0001261FE009980A990B9AC068381804F0C3FC002D42D00D980E900F9E35803DE041
:20186C005D480168CEB150460068014215D058460068014204D148460068008801420CD0EE
:20188C004FF4FC765A4805680096584B0192564E02941A8830684346A8470D241EE04E48FB
:2018AC000168D6B150460068014216D058460068014204D148460068008801420DD04C48B5
:2018CC0040F2F3163AA305680096484E0193464B0294328818684346A84707240E98FF28E6
:2018EC000ED00798806858B106684EB10B980D9A0A9B3F18B8B20090089841F21011B047D6
:20190C00204611B0BDE8F08F38DD00006C65645F736572766963652E6300C04641747472A4
:20192C00696275746520776173206E6F7420666F756E642E00C046C0577269746541747442
:20194C00724342203A20257320636F6E6E48616E646C6528256429206C656E282564292025
:20196C006F666673657428256429206D6574686F64283078253032782900C0464C45443155
:20198C0000C046C04C45443000C046C0496E76616C69642076616C7565206C656E67746804
:2019AC00207761732072656365697665642E00C0416E20696E76616C6964206F6666736572
:2019CC007420776173207265717565737465642E00C046C092DC000020DD00004005000086
:2019EC003C050000440500003CDD00008405000034DD000024DD0000F41D00202DE9FE4315
:201A0C000646DFF8DC82DFF8DC92B2780024101C00F03581801E00F00D81401E012840F2FF
:201A2C00E180801E00F0A880401E7BD0401E59D0083800F04681801E40F046814546B08804
:201A4C0095F83E70ADF80000052F45D001208DF80A0005F1CC000AF02BF895F83E000128CE
:201A6C001BD0042819D0032806D0022804D0F28831897089B38907E0B5F84020B5F84210FF
:201A8C00B5F84400B5F84630ADF80220ADF80410ADF80600ADF8083020E0B5F84000F188B8
:201AAC008842D8BF081CADF802003189B5F842008842D8BF081CADF804007189B5F844002C
:201ACC008842D8BF081CADF80600B5F84630B0898342D8BF031CDDE78DF80A40684609F0B9
:201AEC0085FEF1E0454605F1F00009F0E1FF7078002840F0E980F088E88230892883708954
:201B0C00688305F1CC0009F0A1FD002840F0DC80AB6A002B00F0D8801B68E88A298B6A8B9B
:201B2C009847D1E0B08808F0CCFE45462146062205F1380005F028FAEC822C836C83B0797B
:201B4C00687305F1CC0009F0B3FF05F1F00009F0AFFF01244FF6FF706F79A8824FB9B07988
:201B6C00082814BF04200520A870204609F098FBAAE00320A870A7E0707858BB311D0A68FC
:201B8C00454605F138000260898881800627AF707089A882F089E882308A2883708A688370
:201BAC00F0784446287394F83E00012818BF02280AD11F2007F042FB4FF47A71024604F1DF
:201BCC00CC00514307F02EFDF0787289311D07F09DFC7BE0707831286FD14D46042028700B
:201BEC00204623E07778002F67D14546698AA878032A13D02A796F7921B9012A14BF6C712C
:201C0C002C7106E0174304D005F1A80007F00AFDA878072814BF0420062007E0062807D013
:201C2C002879002808BF0324DAD00220A8704DE00724D5E77078751C00283ED14246F77842
:201C4C009078D1799FB9022816D0072814D0062802D1517901290FD103280DD002F1A80033
:201C6C0009F0F4FC40B9012009F01AFB04E08732204606F053FC28702878F0B924E0707832
:201C8C00D8B945460220102105F1480207F09AFF0320102105F1580207F094FFF61C05F1C3
:201CAC002C00B7883168878005F1680201600120A979A87006F032FC40B108204D46287089
:201CCC0004E0B08809F086FD012C06D14546686A18B1016809B1A8788847BDE8FE83C046F8
:201CEC005C1400205E1400202DE9F04F834609AF0846ADF1340D099397F808A00892B98805
:201D0C0007903F880A9106F0D1FC06467B48DFF8F8910588824ADFF80CE279480FF23C1858
:201D2C000FF2681C002E4FF00004C18880880B9538D0761E1FD073480168D5B14846006885
:201D4C00014216D071480068014204D170480068008801420DD071484FF4EA7744A6056899
:201D6C0000976D4B01966B4F02941A8838684346A8470A206FE00D4610460B9E0168002E05
:201D8C0037D048460068014233D060480068014204D15F480068008801422AD040F2CF13E4
:201DAC0049A214E0054610460B9E01680EB34846006801421DD055480068014204D15448E5
:201DCC0000680088014214D04FF4E27340A2704606680093CDF804C00292CDF80CB0049776
:201DEC00CDF814A04C4B06941A884A4B18684346B047BD420EDB0A98E91B8142D4BF8AB2D6
:201E0C00021C099802800798C0683918089804F0E3F91FE03B480B9F0168D7B148460068DA
:201E2C00014216D039480068014204D138480068008801420DD039484FF4ED7726A605687B
:201E4C000097354B0196334F02941A8838684346A847072420460DB0BDE8F08F62757474C5
:201E6C006F6E5F736572766963652E6300C046C041747472696275746520776173206E6FB6
:201E8C007420666F756E642E00C046C052656164417474724342203A20257320636F6E6E16
:201EAC0048616E646C653A202564206F66667365743A202564206D6574686F643A203078BA
:201ECC002530327800C046C0425554544F4E3100425554544F4E3000416E20696E76616C2F
:201EEC006964206F666673657420776173207265717565737465642E00C046C092DC0000A3
:201F0C00E81C002020DD0000400500003C050000440500003CDD00008405000034DD000012
:201F2C0024DD000038DD00002DE9F04F834609AF0846ADF1340D099397F808A00892B988CE
:201F4C0007903F880A9106F0D7FB06468448DFF8F0910588804ADFF804E277480FF23C181C
:201F6C000FF2641C002E4FF00004818840880B9538D0761E1FD071480168D5B148460068C9
:201F8C00014216D06F480068014204D16E480068008801420DD06F484FF4E57743A6056863
:201FAC0000976B4B0196694F02941A8838684346A8470A206FE00D4610460B9E0168002EC7
:201FCC0037D048460068014233D05E480068014204D15D480068008801422AD040F2C513B0
:201FEC0048A214E0054610460B9E01680EB34846006801421DD053480068014204D15248A8
:20200C0000680088014214D04FF4DD733FA2704606680093CDF804C00292CDF80CB0049739
:20202C00CDF814A04A4B06941A88484B18684346B047BD420EDB0A98E91B8142D4BF8AB297
:20204C00021C099802800798C0683918089804F0C3F81FE039480B9F0168D7B148460068BB
:20206C00014216D037480068014204D136480068008801420DD037484FF4E87725A6056845
:20208C000097334B0196314F02941A8838684346A847072420460DB0BDE8F08F64617461AC
:2020AC005F736572766963652E6300C041747472696275746520776173206E6F7420666FEE
:2020CC00756E642E00C046C052656164417474724342203A20257320636F6E6E48616E64C2
:2020EC006C653A202564206F66667365743A202564206D6574686F643A20307825303278F4
:20210C0000C046C053747265616D00C0537472696E6700C0416E20696E76616C6964206F45
:20212C00666673657420776173207265717565737465642E00C046C0A41B002020DD00004E
:20214C00400500003C050000440500003CDD00008405000034DD000024DD000038DD0000DB
:20216C0092DC0000F8B5A0F2013517460E46022D40F20C818649874C874A884B2D1F0F2D03
:20218C0004D9143D4AD0AD1E1CD011E0DFE815F0BA00B500EB00DB00AE00A700FE009F0050
:2021AC00980010001000900086007A006F006200282880F2EB80022E40F0E880398807F04D
:2021CC0061FBF8BD012E40F0E1800A469078012800F0DC80D1783878D07081B9002800F0CA
:2021EC00D5801078012800F0A080042800F09D80062800F09A80052800F09780F8BD3878B3
:20220C00002840F0C3801078032800F09980072800F09680052800F09380F8BD012E40F0E2
:20222C00B5803878012840F0B180254605F1F00009F00CFA002840F0A98004F13E010020FE
:20224C0005F076F8002840F0A18004F1CC0009F02FFCF8BD022E40F0998038880A28C0F2DF
:20226C009580B0F5486F00F39180114614E0022E40F08C803888B0F5FA7F80F28780114678
:20228C000880F8BD022E40F08180388806287DDBB0F5486F7ADC1946891CF1E7022E75D14A
:2022AC003888062872DBB0F5486F6FDC1946E7E7012E6BD13878062868DA1146891F0CE08D
:2022CC00012E63D13878042860DA093105E0012E5CD13878082859DA08310870F8BD012E56
:2022EC0054D13878042851DAC91DF6E7012E4DD1387804284ADC891DEFE7022E46D1388811
:20230C001031BDE7012E41D10A46D07801283DD091783878907061B9002837D0107801280A
:20232C0003D0042818BF052830D1012008F0B8FFF8BD387850BB1078022818BF052825D1A1
:20234C0009F03CF9F8BD254600211F2205F18704204604F019FE39463246204603F03CFF44
:20236C000020EE710EE0254600211F2205F16804204604F009FE39463246204603F02CFFD9
:20238C000120AE713146224606F0C8F8F8BDC0465E1400205C140020A01400209C140020DB
:2023AC002DE9F04F834609AF0846ADF1340D099397F808A00892B98807903F880A9106F071
:2023CC0033FA06467A48DFF8F4910588814ADFF808E278480FF23C180FF2641C002E4FF03E
:2023EC000004818840880B9538D0761E1FD072480168D5B148460068014216D070480068E9
:20240C00014204D16F480068008801420DD0704840F2A11743A6056800976C4B01966A4F3B
:20242C0002941A8838684346A8470A206FE00D4610460B9E0168002E37D04846006801429E
:20244C0033D05F480068014204D15E480068008801422AD04FF4CE7348A214E00546104670
:20246C000B9E01680EB34846006801421DD054480068014204D1534800680088014214D089
:20248C0040F291133FA2704606680093CDF804C00292CDF80CB00497CDF814A04B4B0694E0
:2024AC001A88494B18684346B047BD420EDB0A98E91B8142D4BF8AB2021C099802800798DA
:2024CC00C0683918089803F087FE1FE03A480B9F0168D7B148460068014216D0384800683C
:2024EC00014204D137480068008801420DD0384840F2A71725A605680097344B0196324F53
:20250C0002941A8838684346A847072420460DB0BDE8F08F6C65645F736572766963652E3A
:20252C006300C04641747472696275746520776173206E6F7420666F756E642E00C046C066
:20254C0052656164417474724342203A20257320636F6E6E48616E646C653A202564206F35
:20256C0066667365743A202564206D6574686F643A2030782530327800C046C04C454431E6
:20258C0000C046C04C45443000C046C0416E20696E76616C6964206F666673657420776149
:2025AC0073207265717565737465642E00C046C092DC0000F41D002020DD000040050000D5
:2025CC003C050000440500003CDD00008405000034DD000024DD000038DD00002DE9F04155
:2025EC00ADF1800D08F02EF8864C002104F19C05284609F017FB04F1B40004F1D801656444
:20260C0003F06AFF206510B909F008FB206D0321012206F0C7FE04F1C00004F16C0103F06F
:20262C005BFF606508B909F0F9FA04F1CC0004F1740103F051FFA06508B909F0EFFA04F1B7
:20264C00A80004F1E40103F047FFE06410B909F0E5FAE06C6C4909F007F908B109F0DEFA4A
:20266C0003A800212422082309F0D4FA684E4FF47A7732250D20DFF894813168099003AB10
:20268C0004F5B270B7FBF1F189B205FB01F2414609F0BCFA0E20316809902A4603AB04F5A4
:2026AC00C470B7FBF1F189B24A43414609F0AEFA06F0A5FD08F0A6FE0125002640F205306F
:2026CC008DF80A500DF10A02ADF808602946FFF749FD40F20630022102AAFFF743FD621C62
:2026EC004FF442702946FFF73DFD04F58E7240F207301121FFF736FD0620A02107F0C2F8E5
:20270C000720A02107F0BEF80820A02107F0BAF80920A02107F0B6F828461E2107F0B2F8A9
:20272C0001968DF803508DF802508DF801608DF800504FF48160042101AA07F089F84FF4DD
:20274C00806029460DF1030207F082F840F2024029460DF1020207F07BF840F20340294677
:20276C000DF1010207F074F840F2064029466A4607F06EF809F02DF9FDF77CFE08F04CFE26
:20278C0009F03AF8207803F089FB02F0F5FC02F0D7FF03F0D3FAFDF74BFC03F075FA0CA837
:2027AC003146282204F0F0FB1A4916A8282203F013FD304629460CAA00F042F928460CAA15
:2027CC00014600F03DF9304629460CAAFEF7FAFD28460CAA0146FEF7F5FD3046282116AA28
:2027EC00FEF7B2FA284614210CAAFEF7ADFA08F0FBFB07F021FD09F0CDF809F0CFF820B0E6
:20280C00BDE8F0812005002055A40000A166000014DD0000E9D800002DE9F04F0128ADF183
:20282C00140D40F0F280DFF81492D9F8DC00012840F0E9800220C9F8DC0009F0E3F90290B7
:20284C00012006F043FA20B101210646C9F8DC10D5E009F0D3F903906E484FF00008C0F86A
:20286C000080012008F0AEFA012818BFCDF8008004D1404605F006FD0120009066486E4C5A
:20288C00C0F800801934D4F8FF0F112008F0F8FF00280CBF46460126102008F0F1FF08B136
:2028AC0046F002060F2008F0EBFF08B146F004060B2008F0E5FF30B1584800685849006BC8
:2028CC000246088890470A2008F0DAFF0028404618BF01204FF0805B0BF5DC7528B12868C8
:2028EC005049006B0246088890474F480127076028688069014646F0200088474B48076014
:20290C0008F0B8FF00F001010191400815D2484808F00DFF8246BAF1040FF8D0BAF1010FAC
:20292C0006D1DBF8D801406802464148032190474049086820F003000860404600F08EF923
:20294C002868D4F8FF1F806B8047019801280ED0BAF1010F06D1DBF8D801406802463448F5
:20296C00394690473349086840F0030008602A480760286840690146304688470B2008F0AD
:20298C007FFF28B128682649C06A0246088890470A2008F075FF28B128682249C06A024620
:2029AC0008889047204807600322C9F8DC201F4BC3F800802868406B01463046884701285E
:2029CC00F8D1042006F082F9124807601A48D4F8FF1F01688909FCD30098012802D13846A4
:2029EC0005F050FC08F03AFF082006F06FF906460398C9F8DC7009F0FDF805F081FA0298E7
:202A0C0009F0F4F802E0042600E00126304605B0BDE8F08F0C40094000022243B80100109E
:202A2C00E6D70000E2D700002820086080010443004003402422084014100940A81900203D
:202A4C002DE9F04F05460F467948DFF8F0B1DFF8F0A1DFF8F4917E49ADF1240D0FF26C1C59
:202A6C000FF230182E1C089202887B48079238D0761E1FD06F480168171C00F087806E48AC
:202A8C000068014200F0828058460068014204D1504600680088014278D06C484FF48C7764
:202AAC0040A6046800974B460196664F02951A88386862E00968041D002AA4F1030635D0CA
:202ACC005D480068014231D058460068014204D1504600680088014228D04FF48A7342A296
:202AEC0013E00968841C064602B35348006801421CD058460068014204D1504600680088EF
:202B0C00014213D04FF4867339A2524805680093CDF804C002920397002304930593069330
:202B2C004B461A88474B18684346A847022F00DA37BB414D3F4C07982A682168061C25D0E5
:202B4C00114223D058460068014204D150460068008801421AD03F484FF49276046800967E
:202B6C0025A50195029701230393002204934E460592344D0692328828684346A04705E0FA
:202B8C00089930463A4603F027FB278009B0BDE8F08FC0466C65645F736572766963652E40
:202BAC006300C046536574506172616D657465723A20506172616D657465722023256420EC
:202BCC006E6F742076616C69642E00C0536574506172616D65746572203A202573206C65AA
:202BEC006E3A20256400C0464C45443100C046C04C45443000C046C04C656E677468206FEA
:202C0C0075747369646520626F756E64733A204C656E3A202564204D696E4C656E3A202531
:202C2C0064204D61784C656E3A2025642E00C04692DC000020DD0000400500003C050000B7
:202C4C00440500003CDD00008405000034DD000024DD000038DD0000F41D00202DE9F84FC8
:202C6C0082467A48DFF8D89135380068800880F0D88007F00FFD054678480830D0F80080CB
:202C8C0000244FEA2876761C5FEA98500AD2C5F13E0015F10A0F4FEAE000D8BF08208642DB
:202CAC00B8BF061C634FD7F87C01C0F3046008F037FD83463868C0F3044008F031FD06EBB7
:202CCC000B020090162A05DA12F10A0FB8BF6FF0090200E01522584B584F02F01F0141F487
:202CEC00F8511980396811F0030F18BF0124C90828BF44F00204BAF1000F18BF44F0040477
:202D0C00494691F90730EB1A052B04DA8B79A34208BF888864D0DFF82CE10F2DA5F10F0C7F
:202D2C0025DB0CEB0513A3F1F00C4FEA2C27072F88BF07273E46062E88BF06265EF826000A
:202D4C00042303EB86037646F3581B1A03F0FF06E00824BFC3F307200644A00824BFC3F362
:202D6C0007400644600828BF06EB136601E0002637465EF827E0E0080EF0FF0324BFCEF390
:202D8C0007200344A00824BFCEF307400344600828BF03EB1E630098B6B2ACEB07277E439B
:202DAC00801A06F1800603EB1623D8BF0120342208F0FF0742437A43B2FBF3F04FF6FF7235
:202DCC00824238BF101C802D80B2888005DA15F1800FB8BF6FF07F0500E07F25CD718C718C
:202DEC00194A12681F280A604FF0000208D340F2FF11814206D24008521C8142FBD301E018
:202E0C001F208880124F11490F38000942EAC00247EA0200C1F8FB0F0026C1F8FF6FBDE87E
:202E2C00F88F0D4F0B4E494608203760891D0870BDE8F88F3C1100506E620840242208406F
:202E4C00E02F00209C130050082009403500094000E7A48030100940FDFDA400AC3F0050DC
:202E6C002DE9F0411C4615468C4208BF854282BF00230022E5E0002C08BF002D0AD1002977
:202E8C000EBF00286FF000006FF0000100F0E1F8BDE8F0815FF000085FF0000E002C08BFEC
:202EAC008D429CBF2C1C0025070C47EA01470E0CB44208BFBD429EBF5FEA044444EA154498
:202ECC005FEA0545070A47EA01670E0AB44208BFBD429EBF5FEA042444EA15645FEA0525ED
:202EEC00470847EAC1774E08B44208BFBD4200F29380870847EA81778E08B44208BFBD42ED
:202F0C007CD8C70847EA4177CE08B44208BFBD4266D8070947EA01770E09B44208BFBD423D
:202F2C0050D8470947EAC1674E09B44208BFBD423AD8870947EA81678E09B44208BFBD4293
:202F4C0024D8C70947EA4167CE09B44208BFBD420DD8E60146EA5566EF01B14208BFB842D2
:202F6C0001D3C01BB14158EB08085EEB0E0EA60146EA95664FEA8517B14208BFB84201D3BD
:202F8C00C01BB14158EB08084EEB0E0E660146EAD5666F01B14208BFB84201D3C01BB14119
:202FAC0058EB08084EEB0E0E260146EA15762F01B14208BFB84201D3C01BB14158EB0808A3
:202FCC005EEB0E0EE60046EA5576EF00B14208BFB84201D3C01BB14158EB08084EEB0E0EB3
:202FEC00A60046EA9576AF00B14208BFB84201D3C01BB14158EB08084EEB0E0E660046EAA2
:20300C00D5766F00B14208BFB84201D3C01BB14158EB08085EEB0E0EA14208BFA84201D375
:20302C00401BA14158EB08085EEB0E0EA34208BFAA423EBF2D0A45EA0465240A89D37346E8
:20304C0042461E4617460B46024631463846BDE8F08170472DE9F04F0D468246DFF8988160
:20306C00694C287809AF9B460FF20419ADF1240D0228079207D140466B680688188842F60F
:20308C000211814224D0284605F010FB5B48474601683888D0B15A480068014216D059483E
:2030AC000068014203D12068008801420ED05948046840F2132733A600250097544B019610
:2030CC00524F02951A8838684B46A0470A204CE051480068002E80462BD04948006818EAB1
:2030EC00000F26D04748006818EA000F04D12068008818EA000F1CD03879FE280CBF28A665
:20310C002EA6284605F0D2FA444940F201230C6800932DA201920290CDF80CA00021049696
:20312C003B4B0591394E06911A88306841464B46A04738880090079A5B462946504605F084
:20314C00A3FC06463648076876B96FB1786858B1284605F0ABFACDF800B07C68079B024608
:20316C004FF489515046A047304609B0BDE8F08F627574746F6E5F736572766963652E63D9
:20318C0000C046C041747472696275746520776173206E6F7420666F756E642E00C046C09D
:2031AC002D20726573746F72696E6720626F6E64656420737461746500C046C02D204F5456
:2031CC0041207772697465005772697465417474724342202843434344293A2070617261B0
:2031EC006D3A20256420636F6E6E48616E646C653A2025642025730092DC000020DD000053
:20320C00400500003C050000440500003CDD00008405000034DD000024DD000038DD00000A
:20322C00F01C00202DE9F843814608F011FB002100B901216B4E30680028FCD06C4D01241B
:20324C002D1DEF6A346009B108F008FBDFF89881C7F3072008F1BC01086008F0F9FA00217B
:20326C0000B9214630680028FCD02F68346009B108F0F4FAC7F38440C8F8C00008F0E8FAF3
:20328C000146002001B92046014630680028FCD0ED69346009B108F0E1FAC5F38120C8F838
:2032AC00D000B9F5C061C8F8B81000F0968098F8D80068B9C8F8D410D8F8C000C8F8C80090
:2032CC00D8F8BC70C8F8C470D8F8D060C8F8CC60D8F8D410D8F8BC60002954BF02206FF0A9
:2032EC000100454605F1C8031A6801EB41014018411000EB917002EBA0021A60D5F8C81082
:20330C00C5F8C46000291CDD1E293DDDD5F8CC0030B93429B4BF15391E21C5F8C81025E0C4
:20332C002A29BABFD5F8C8000B381E20C5F8C800D5F8C4003F28B4BF401C3F20C5F8C40073
:20334C001FE0D5F8CC00032812D011F10B0FC6BFD5F8C8000B30201CC5F8C800D5F8C400F9
:20336C000028CCBF401E0020C5F8C400032009E011F1150FC6BFD5F8C8001530201CC5F805
:20338C00C8000020C5F8CC00B5F8C400174E30214FF47F4208230090304605F0BFFB009411
:2033AC0004214FF400321123304605F0B7FBB5F8C80004214FF4F80212230090304605F00F
:2033CC00ADFBB5F8CC0020214FF440620A230090304605F0A3FBBDE8F883002088F8D8003C
:2033EC00BDE8F88300800C40A819002000A00C4000A00C402DE9FC416F4C204608F056FB5F
:20340C0015460E46009008F01DFC05F001078046B6F1FF3F0DD1606820B9B4F91200401C0E
:20342C0006B202E06068B0F91C6064490020C91C0870304607F01EF80326002800F0A480E7
:20344C006168814270D0009FDFF848C1B84231D03FB100990A68904209D009680029009149
:20346C00F7D1832E44D0404608F0E8FB40E0604607F004FC00990868AA0803D202680B464A
:20348C0001461A6000220A60009078B10C340146C87F40F00400C877684607F0C5FE01462A
:2034AC00204606F00DFB00980028F0D1404608F0C5FB1CE0604607F0E1FBA8083ABF206837
:2034CC00006800202060404608F0B8FB0C340099C87F40F00400C877684607F0A5FE014685
:2034EC00204606F0EDFA009808B1A808EFD2832629482C4A007890B928480078012846D043
:20350C002748FCF7F1FD0221104607F021FF2648007801283BD02548FCF7E6FD37E01046F5
:20352C00022107F015FF32E0A90803D32168009100262660C27F0121B9401143C17708F012
:20354C005DFB0646002F14BF19481A4807F012FB404608F073FBA80811D3009878B10C3471
:20356C000146C87F40F00400C877684607F05CFE0146204606F0A4FA00980028F0D1304607
:20358C0008F038FB832602E0404608F057FB3046BDE8FC81A02E00200E3000200D30002058
:2035AC00D9090000382E00200F300020615200000100020401000104A82F0020002F002032
:2035CC002DE9F04FADF1840D209001F065F805F081FA0024012804D107F0A2FD022808BF44
:2035EC00012459490868C0F38150012805D151F80C1C0120090E884004435448007807F042
:20360C0097F9DFF84C81DFF84CA1C8F8000030B15246FF2107467F1E02F8011BFBD12099C8
:20362C000968002501F0FF02FE2A1BD0DDF880C052462B46012701F0FF06FF2E0BD0B042AD
:20364C0003D907FA06F6344201D0022079E001F0FF01354353545CF8041F5B1C01F0FF06CF
:20366C00FE2EEAD1092001F035FF3B49209824220823086001A8002108F0B4FA4FF001093B
:20368C0001AA3E488DF81C90494608F0A7FAD8F800303BB33A4E00274FF0040BBA4609FAA6
:2036AC0007F0044218D1054204BF07F0FF0141F4C04104D027482099C05D51F820102748A0
:2036CC0002F086FAF8B24FF0FF3107F0A5FBD8F80030C6F800A001E0C6F800B07F1C361D21
:2036EC009F42DCD30AA800213022082308F072FA1B4D1D4A2878002410210AAB12901948FE
:20370C00009408F063FA16A828220823214608F059FA686816AA16491C9014481D942346BE
:20372C0008F04CFA134A52F80D0C494620F4F85040F4005042F80D0C0F4BC2F8FF1F204625
:20374C00196021B0BDE8F08FB43F005014300020BC2B0020C42E002004300020007FC7672E
:20376C00F0DC0000242F002041AE0000042E0020B98B00000D30094008000940402F002013
:20378C00882D00202DE9F84F9A4693460D46044608F058FADFF85C810AAFB8F91220B8F94A
:2037AC001010009040F6F870891A0840082880F29280B8F91000401C6FF31F30A8F8100092
:2037CC00B8F9109007F016FA064604F1700007F055FAB56086F81EB0C6F804A0F460A6F8D9
:2037EC001C9097E80C0051A003C800251040F577D8F8002006F11007194087E80300002AF6
:20380C005CD14046314606F05BF900285BD0A4F894904448F17F0778DFF8DCA041F0800195
:20382C00F17784F8965067B151460F784FB1344A3449324B0570012015700A781870521C71
:20384C000A70009808F0FAF9D8F8040000284ED15146087800282DD12B480078012846D0DD
:20386C0008F0F0F9054629480078F8B9B06804F033FD284B2C4A26491B681268086038B98C
:20388C00284608F0DBF92448042107F061FD2EE0D0680968214C091AB1FBF3F1204608F0C7
:2038AC00C9F9204608F0C2F928461EE01C4901200870F9E7192007F0D1FE18E040463146E3
:2038CC0006F0FEF850B9B8F9100000F6FF706FF31F30A8F810006FF0010905E0A4F8949052
:2038EC00F07F40F08000F077009808F0A7F94846BDE8F88FA82F00200F3000201330002093
:20390C000C300020153000200E3000200D300020EC2F002014DD0000382E0020A02E00207F
:20392C001030002012300020FC2F0020F1EFFF9F20000000B0B50446694DA178601D05F5DB
:20394C00867204F095F827792846002F38D07F1E79D1227AE179A379677901EB022107EBC3
:20396C000322521E0E2A6ED8DFE802F0281E6D6D1C1A18161412100E0C0A08C0C184B0BD17
:20398C008184B0BD4184B0BD0184B0BDC183B0BD8183B0BD4183B0BD0183B0BDC182B0BD91
:2039AC008182B0BD4182B0BD81814FF47A7292FBF1F189B2C18149100182B0BD4181B0BDC6
:2039CC006279C788036D1146012938D9891E092939D8DFE801F02F2C052405221A18150A11
:2039EC00002F30D003F046F8B0BD17A215210020FDF7AAF90C211AA20020FDF7A5F9B0BD40
:203A0C0001210185B0BD19A2F0E7002014211DA2FDF79AF900F088FCB0BD1FA2E6E70020C9
:203A2C00102123A2FDF790F90B2125A2E4E7112126A2DCE705F0E3FB07F0E4FCB0BD184617
:203A4C00032105F0AFFCB0BD4D6561737572696E67205357562830372921212100C046C07D
:203A6C0053575620446F6E65212121004D6561737572696E6720535756283036292121214C
:203A8C0000C046C04D6561737572696E6720416D7065726F212121004D6561737572696E7E
:203AAC0067205357562830352921212100C046C04D6561737572696E6720435621212100CD
:203ACC00435620446F6E6521212100C04D6561737572696E672053575621212100C046C084
:203AEC00200500202DE9F0438046D8F80460D8F808700C46ADF1340D08F0A4F83178012952
:203B0C0003D108F09BF80020A3E04FF0010986F8009008F093F8207870706078B070606885
:203B2C007060A068B060E068F06020693061207D3075607D7075A07DB075A069B061207FE0
:203B4C003077607F00257077A07F35623563102186F83C10B0772C4674627463B462B4630B
:203B6C0086F82C4086F82D4086F83D40786801F0B1FC404601F048FE404602F0EFFE78B998
:203B8C0035480068C068014638688847786801F0CDFB08F057F8347008F050F8A04657E075
:203BAC0001A821463022082308F014F8CDF818803A7B09920095294AB96806F1680001AB87
:203BCC0008F004F801A828220823214607F0FAFF396907912249CDF8148006F1840001AA4C
:203BEC00234607F0EBFF01A824220823214607F0F9FFB0788DF81C9038B906F1B80021469F
:203C0C0001AA07F0EBFF17483061707838B906F1D400214601AA07F0E1FF1348F06001A83B
:203C2C0021462422082307F0F5FF0694ADF8144006F1F0000D49CDF81C800A2201AB07F0B5
:203C4C00E5FF0B4A06F154000421434606F04AFD40460DB0BDE8F083D0010010B54F0000A9
:203C6C00CD880000D1B90000C9B900007965000079B600002DE9FC415E4C574D574EDFF8AD
:203C8C0060815A4F94F8E410481E0B2861D8DFE800F07B2C430623430623430676640429B6
:203CAC0007D001220A2945F8212C14BF0220032004E02021012045F8211C024684F8E200C3
:203CCC00002045F8390C0827C5F8FF7FC5F8F37F45F8392CBDE8FC81052914BF0920062089
:203CEC00002584F8E400356070E094F8E1700120383D002FC5F81B0004BF0620002102D0F8
:203D0C000021F160032084F8E400032045F8010C31603068800859D294F8E4000125032898
:203D2C000DD00021404660220523009104F0F6FE94F8E400062814BF0A200720D1E7022034
:203D4C000090002160220523404604F0E7FE0420C7E707F02FFFBDE8FC8122490026224889
:203D6C000E60012505600E2001F0E0FA022006F085F884F8E45084F8E360BDE8FC810020FF
:203D8C0038600C2578601FE01948006800680146202088472C3D41F61D560F2000214FF44A
:203DAC00C072072345F8010C4046C5F803600225009504F0B3FE404600214FF4C072072304
:203DCC0005F07EF90120386084F8E45004F1780007F02CFFBDE8FC8139400C4038600C40A8
:203DEC0000A00C402C500C4004800C4034600C40A0010010A8190020B0B54568846851482A
:203E0C00297BADF1180D01291AD001462F7E227E637E4D4837F0010741EA020240EA030086
:203E2C0001904A48009218BF011CA27E1143029195F88D200323FF2A13D0014610460DE0D0
:203E4C00A17E627E237E41F00041024343F00043029195F88D0000933D49019201430423C5
:203E6C000391FE2105F190004DF82310694602F033FBC5F89C00002808BF00205FD0287B7C
:203E8C00344951F8200001282BD02068B0F1804F14BF22220A22217ED5F89C0006F0BEFA1B
:203EAC002068B0F1804F14BF21220922617ED5F89C0006F0B3FA2068B0F1804F14BF2422C1
:203ECC000C22A17ED5F89C0006F0A8FA95F88D10FF2933D02068B0F1804F14BF23220B22F6
:203EEC0028E02068B0F1804F14BF21220922217ED5F89C0006F092FA2068B0F1804F14BF20
:203F0C0022220A22617ED5F89C0006F087FA2068B0F1804F14BF24220C22A17ED5F89C009F
:203F2C0006F07CFA2068B0F1804F14BF23220B2295F88D10D5F89C0006F070FA012006B002
:203F4C00B0BDC046000480A0004000800004C0A00020008080D700002DE9F0410646524D71
:203F6C00B088ADF1200D002804BF05F10C04A0460DD005F10C040346A62137A2204607F032
:203F8C0025F8204607F098FA281800F10C083768B8B206F03FFE40A20CCA00F01FFE40A2E1
:203FAC000CCA00F01BFE04F0B5FEA4EB080100902BA23B0CA631404607F008F8204607F082
:203FCC007BFA2218A8682146121B07F0C5FCF088D8B107F0EBFD35490A8832B9B168009145
:203FEC00F168034622A201911FE0F16800913169019171690291B1690391F1690491316A03
:20400C000591716A0691B3680EE03069009070690190B0690290F0690390306A0490002704
:20402C0005970697F368B06802462046A62106F0CDFF204607F040FA22180D2002F8010B8D
:20404C000A2702F8017BA8682146121B07F084FC08B0BDE8F081C04623253036752000C0BB
:20406C005B2025642E25303375205D2000C046C07B6576743A20666D743D25702C20617246
:20408C0067733D5B307825782C2030782578202E2E2E5D7D00C046C0000000000000F03E54
:2040AC000000000000408F40A40E00208A0500002DE9F04305466E68AF680C46ADF1340DD2
:2040CC0007F0C0FD96F8D910012903D107F0B6FD002084E04FF0010886F8D98007F0AEFDBC
:2040EC004FF00009C6F888902069306160697061207E3076207B307320783070606886F8E2
:20410C00A490706060694946092828BF414686F88C10387B01F0DEF9284603F007FEF87E27
:20412C0086F88D002846FFF767FE50B9387B01F0FDF807F087FD86F8D99007F07FFD4D4695
:20414C004CE001A849463022082307F043FD06957A790992CDF80090224A397906F11C008C
:20416C0001AB07F033FD01A828220823494607F029FDB96807911C49059506F1380001AA04
:20418C004B4607F01BFD307878B901A849462422082307F027FD06F16C008DF81C804946C3
:2041AC0001AA07F01BFD114800E0A068B06003F003FF317BC6F8A000012908D1D6F89C007C
:2041CC000B4907F051FBD6F89C0000B18560094A06F1C40004212B4606F084FA28460DB0F9
:2041EC00BDE8F083A160000087840000B9B90000ED930000EDB800002DE9F041424C474D8F
:20420C008046C8F38140401E02D0401E2AD025E0284620300168880C20D24FF48040206093
:20422C003A48D0F802204B0AC1F3033703F0800322F08F02134347EA0302C0F80220D0F87C
:20424C0001300E1266F30303C0F80130026801F0E70722F0E70247EA020102E04FF00041DF
:20426C00204601602A4E06F108000068C0F3C0070FB94020A0624FF40070206407F0CEF9F3
:20428C0040F0300084F8C800C8F3815038B3401E03D0401E1ED002211DE0012006F092FDB4
:2042AC0007460420394604F0E5FA042006F08AFD8742FAD1366826F07F4005F0C7FD154871
:2042CC000068036807214FF06022300E98474FF4806020600321042004F0CCFA06E004204A
:2042EC00012104F0C7FA0C4805F0B0FD284600680B4947F6180700F03F0084F8CB0F094E83
:20430C000F803068BDE8F08140A00C400A600840A83F0050B4010010BD3786006C13005031
:20432C0070B00C402C2009402DE9F04F464C218CFA2000FB01F2132192FBF1F21FFA82F99C
:20434C00E28B0027ADF12C0D04F5E778504390FBF1F080B204F5E7710A902020401E21F8BB
:20436C00027BFBD1FF2028266946761E01F8010BFBD10A991F2003F039FD002860D1334D83
:20438C00284607F02CFB484603F05DF90146182003F02CFD002853D1284607F020FB67845C
:2043AC00608B3D4600283AD03E464FF0410B4FF04D0A42F6E069608C012830D004F000FE24
:2043CC0028F815006D1C202DA8BF3D1CA08B09FB00F007F004FB8DF800B0761C8DF801A004
:2043EC0030128DF802600DF102028DF8030002202B1A591C48BF03F1210138F81110401C58
:20440C0002F8021F14284FEA21215170F0DB384628216A46FCF798FC608BB042CBDC0A990D
:20442C00182003F0E3FC58B9412046268DF8000028216A468DF801603846FCF785FC25808D
:20444C000BB0BDE8F08FC04626050020804F120070B5ADF1380D00F01FF9324908682822FA
:20446C00082340F00200086001A8002107F0AAFB2D4EB0782E4907902C48002301AA07F01B
:20448C009DFB00213022082301A807F0A3FB002519213078284AADF81C5001AB0990254860
:2044AC00009507F093FB2822082301A8294607F089FBF07822490790204801AA2B4607F0E9
:2044CC007DFB3022082301A8294607F083FB01241A2170781C4AADF81C4001AB09901948F9
:2044EC00009507F073FB194819492A46134607F08DFB1848FBF7F8FD1849194E0C701648C2
:20450C0035704FF6FF728283C577164B1D70164C257016490D70174E3560154A15700EB096
:20452C0070BDC0460020094008DD0000382E002025B300005C2F002085A900006C2E0020FD
:20454C00555F0000782F002039830000A02E0020799F000061520000E42E00200C300020D1
:20456C00113000200E3000200D3000201230002013300020F02F00202DE9F04F0C464549DA
:20458C00CA7AADF12C0D84460592487B09900D7900958A7A488B4B8A0E7B91F805A091F830
:2045AC0002800492B1F846E008904A7A088B0392CD7807900A7AC88A02920F6A0690CA79EC
:2045CC00888A01928A79E146A9F54079B9F11D0F10D8DFE809F05B5553514F4D4B4946431E
:2045EC00413F3C3A380F34312E2B2923201E1C0F19181716BCF1280F49DA604604F01EFEE4
:20460C0021E0099EB246D046CDF814801DE00898079007980690DDF818E005E0383108688B
:20462C0020608888A08032E070460AE0B1F8440009E0B1F8420004E0B1F8400001E091F814
:20464C003E00034612E0208021E0059804900498039001E03231E2E7039802900298009070
:20466C0006E0019A87310DE068310BE01846EAE7009D0BE02C31D2E7276008E0583100E0DF
:20468C0048311022204601F0A7FD00E025700BB0BDE8F08F5C1400202DE9F041444C94F821
:2046AC00E700ADF1280D00286FD1394F387B01250021242284F8E7507E6884F8E6000823DE
:2046CC00C4F80C6101A807F0A5FA002604F10C00069601ABADF814602E490796324607F05B
:2046EC0095FA2D4904F1300001AB324607F08EFA2A4904F1540001AB324607F087FAB86869
:20470C00014628468847DFF89C8025487B7B0078D8F80410C1F381571BB1032F03D184F87D
:20472C00E150032F16D0022F14D0012F26D103201D4C009031464FF040521C23204604F0EB
:20474C00EDF9009531464FF400720923204604F0E5F913E0022005F0A9FB032F0CBF4FF454
:20476C007A7142F21071114800685434B1FBF0F1204607F05FFA204607F058FAD8F8000082
:20478C00C00802D2304605F091FB0AB0BDE8F08194DC000033810000C1670000116F0000DE
:2047AC0014300020B03F005000A00C4014DD0000A81900202DE9F0430746880FADF1140DA0
:2047CC0075D304F0A3F8404D00261C352E60394845F81C0C012001F0AEFC3748FBF784FCD1
:2047EC00BC68B14640F60A01344A6680537B118090465680107BC2F8049003F0F00300F033
:20480C00F000107343F00103537300E01C46636813B118888142F9D1C4F80480607B00F013
:20482C00F0006073264807F041F980680088C91F81421DD0491C81421AD03B8CC3B197F826
:20484C002C107E8497F82D00C7F8249001F0F00100F0F00087F82C1040F0010087F82D0085
:20486C0007F12003C8F80430507B00F0F0005073B868694606F08EF9684606F0C7FEB868DA
:20488C0001F045FD28680028FCD02E60012006F099FA012808D0607B00F0F00040F0010030
:2048AC0060730848FBF720FCB86845F81C0C05B0BDE8F08301010E04D9090000BC2F002068
:2048CC00A82F0020E5810000001004402DE9F04106F03EFC3F4D3E4EDFF8FC800446A00847
:2048EC0020D330464168E9B1002242608B690A690F6922401A4342F0020205F108038A617C
:20490C001A68BA4301F110071A6097E80C002A680C301B1C9A432A6005F0D2F8404602212A
:20492C0006F016FD7068A10815D200F1100191E80C00002702EA04013B40002B08BF0029C5
:20494C0009D081691440B0600C4384614FF48041404606F0FDFC7068002837D1304607F002
:20496C00A5F8071C32D01E48F9680068884228D1B86803F0B1FC19490860E8B905F108014D
:20498C0038690A68104308602B6807F1100494E80300081C1843286000222A61B86845F80E
:2049AC000C0C05F1100000680028FAD0304606F03BFC7760BDE8F081086803F0C1F8BDE822
:2049CC00F08140464FF4805106F0C2FCBDE8F081A82F00200C100440382E0020EC2F0020DE
:2049EC00FC2F00202DE9F04707467D68D7F8089090460C4607F026F9AE6A8246002E64D1F9
:204A0C0005F1F00006F03AF92C620024EC7750466C6207F013F907F015F92F4E337882460A
:204A2C0023B9022005F042FA01203070504607F005F92A4A1068414640F48070106038466A
:204A4C0004F0B4FEA862C0B93846414603F0D0FFA878D0B9A96805F1B80007F0A3F8E8B9BF
:204A6C00AC621020E8774946284602F09BFC07F0E9F88246307840B323E0D9F80010886BF5
:204A8C0040F020008863A87810B12046BDE8F087A96805F1B80007F085F810B1686ABDE801
:204AAC00F0873846414603F0A3FF1020AC624946E877284602F076FC07F0C4F882463078B8
:204ACC0018B1022005F0DAF93470504607F0B6F84FF0FF30BDE8F0871830002030100040C6
:204AEC002DE9F047ADF1180D01F01CFE3A4D4FF0030908274FF6FF78002605F13E0A2C46FC
:204B0C0006F052F920BB009601A80DF106016A4605F04DFBE0B9BDF80400102814D16078F5
:204B2C009DF8061088420FD100980188884509D14088C00B08D3042005F12002014605F066
:204B4C0041F801E003F008FF009808B106F0B8FA208A41082DD320F0010063792179208220
:204B6C0053EA010225D073B9207A637A8DF8070005F132018DF808300A680DF109031A60E9
:204B8C008988998001E08DF80790A07A8DF80F00E37A8DF810300DF1070006F015FE38B11B
:204BAC00636AA77023B11A6812B1196838468847208A810807D320F0020020825146304650
:204BCC0002F0B6FB208AC1089AD320F00400208206F05AF994E7C0465C1400202DE9FC41E3
:204BEC0091EA03084CBF4FF000484FF000084FEAC32545EA52554FEAC2264FEA43077F0D23
:204C0C0011BF45F0004500210020BDE8FC815FF4E06E1EF1FF0E774555D04FEAC12343EAF3
:204C2C0050534FEAC0224FEA4104640D11BF43F0004300210020BDE8FC81744543D0E41949
:204C4C00A3FB0501A3FB06E7A2FB06631EEB030E57F1000751F10001A2FB05631EEB060E45
:204C6C0057F1000751F10001FF1851F10001C01951F100014CBF4FF4806E4FF4007E10EB28
:204C8C000E0051F1000148BF641C01D4400049415FF44077FF37E41BDEBF00210020BDE8CF
:204CAC00FC8117F58067BC420DD24FEAD02040EA41504FEA41014FEA113141EA045141EA16
:204CCC000801BDE8FC810020FF21C900C91D090551EA0801BDE8FC812DE9F04390460A68A9
:204CEC00D8F800401678814600271D46ADF1140D3846531C242E0B6053D112F8016F5B1C3B
:204D0C004C2E0B600ED1AA68E41C24F00304241D54F8040C494603F0ABF92968EF600127CB
:204D2C00091A2960462E1AD1E41C24F00304241D54F8040CE41C029024F00304241D54F86A
:204D4C00040C002749460390AA68ADF8047001A801F090FA2968EF600127091A2960532E6A
:204D6C001FD1E41C24F00304241D54F8040CE861C8F80040288B0090A968EA69D9F80000BE
:204D8C004346FCF783F9D9F80040002714B10119C9F80010D8F800402968EF60091A0127EC
:204DAC002960662E0AD12B8B23B9E41D24F00704083403E0E41C24F00304241D1FB9E96998
:204DCC000E700127EF60C8F8004005B0BDE8F0832DE9F0430646ADF11C0D06F0DFFE05F0E1
:204DEC001DF84FF000090546CDF8009006F07EFD30F0010002D00098A84202D16FF004008E
:204E0C0059E070684C4658B1B0F1FF3F05D001A904F0ECFF30B107464CE04FF0FF3000E0F5
:204E2C002046019006F0B6FE0199012701EB000800E001936868019906F0B4FE00282ED063
:204E4C0003A804F053FDD8B99DF8100002A904F033FD88B9B368BDF808009DF81210059AE3
:204E6C00984748B19DF81270B773BDF80800B081059B33614F4612E00599684605F04AFADF
:204E8C000198641CB0F1FF3FD4D00028D2D006F081FEB8EB000302D001989842C9D200990C
:204EAC0005F1080005F0BAFB24B1686806F06EFE641EFAD1384607B0BDE8F0832DE9F8434C
:204ECC0007467C68BE6806F0BDFED4F88810002961D006F0B3FE3168486820F00200486056
:204EEC003168486A20F003004862D4F8A000756941683269096845EA0200C1F80405316813
:204F0C00486920F001004861306801250562384605F010FCD4F88800D0F8048006F092FE50
:204F2C00814694F8D80058B118F0704F02D1042004F0A4FF022004F0A1FF002084F8D800B2
:204F4C00484606F07BFED4F88810087C042803D003200874D4F88810D4F8A00043683269AC
:204F6C0070691B6810438540DD623068B0F1804F14BF0B480B48826808689204A0EB925094
:204F8C00401E0860A06800230246C4F8883038469047BDE8F88306F051FEBDE8F883C04678
:204FAC0000050020300400202DE9F8430746D7F80880D8F800007D68066C16F4F06F46643D
:204FCC0026D1F00910D2700952D395F83C00AC6B401E844288BF041C3846214604F076FBA0
:204FEC00A86B001BA86308E0A96B384604F06EFB014695F82D00A96318B9A86B002837D174
:20500C0001E00020A86305F1840006F0BBFD2FE0F00A0ED3D8F80000002144684160A96B14
:20502C0004F00F04202988BF2021384604F04EFB1AE04FF000094C4602E0A86B401EA8639F
:20504C00A86B88B13846012104F040FBD8F80000446814F00F04C0F80490EED0296B686B25
:20506C00491E2963401E6863EC77384602F00CFAB0090DD3AE6A5EB13846314604F096FBF5
:20508C00A862A86A314618B93846091D03F0B0FCBDE8F8837CB50446084602F019FC344EEB
:2050AC0002461821304605F08DF905F0A7FE40F2FF32002380B22C210090304603F02EFDAF
:2050CC0006F0B4FA1C210246304605F07BF905F087FE02461421304605F074F906F05CF8A3
:2050EC0002461021304605F06DF9204602F0E2FA02460C21304605F065F9204606F034F860
:20510C001C4D400040F020002870204606F038F840F010002870204605F04CFD0246282159
:20512C00304605F04FF9204606F042F8400040F06000E870204606F047F8C00040F08000E7
:20514C0005F8080C204606F04BF8800040F47C40A5F89300204605F04BF90246082130466D
:20516C0005F030F94FF48000A5F2091108607CBD00A00C4049A10C407FB52B48067805F0B4
:20518C009DF82A4C0028E06030D005F083FC05F095F82061002829D005F07CFC244A04F128
:2051AC001400072104F068F82248234D01682888D8B122480068014217D0214800680142C7
:2051CC0004D120480068008801420ED01E4840F20113056800930BA20192072302931B4B64
:2051EC001A881B4B186802A3A847267000907FBD627574746F6E5F736572766963652E63A8
:20520C0000C046C05265676973746572656420736572766963652C20256420617474726984
:20522C00627574657300C04620050020E81C002054D9000024DD000092DC000040050000EF
:20524C003C0500004405000034DD0000840500003CDD0000042998B54CD1274806F026FCE7
:20526C00264C48B9264800F11F010978490838BF206803D3406800E0C06820604168214AC5
:20528C0009781160416812680978914206D0876927B124A20CCA6FF0FF01B847022004F0EB
:2052AC0005FE112000F016F901222168164B087C1A7018B115480078012803D00E2000F0DC
:2052CC0009F92168496812488F680FB9CF681FB10021C1610F4F07600F4A40F2FF711160F2
:2052EC00002787610D4941610D48FAF7FDFE192006F044FC98BDC046A82F0020FC2F00204E
:20530C00E42E0020D02108400E3000201130002000100440510007060000046002000040FF
:20532C00C147000000000000000000022DE9F843044606F087FC81462D48021992F8ED1065
:20534C00491ECFB2002F82F8ED704BD12B4D05EB84052E78698836F07F0788461AD1F10950
:20536C0011D24FF08054D4F8B801806901464046884704F5DC742068406B01464046884709
:20538C000228F8D121E000EB8800D0F80011002088471AE04FF08054D4F8B801006A01468F
:2053AC0040468847D4F8B801806A014640468847D4F8B801006B01464046884701210D4A7C
:2053CC000D48116001688908FCD306F03F003F2801D0FFF7ABFF687800F03F003F2801D0DE
:2053EC00FFF7A4FF484606F029FCBDE8F883C046A81900202820086028200840B8D7000089
:20540C002DE9F041846845680F68226895F88C30B8B2B2F1804F00FA03F01FFA80FC14BF25
:20542C00254B264BDFF898E0886838B995F88C2070469600825905F1A60006E095F88C60F4
:20544C00204AB60092596044401E9A6058602068083018609A683F0143F6F078103F08EA25
:20546C0007073A439A602368B3F1804F14BF164A164A496821B971468E5904F10E0105E0F8
:20548C00DFF84CE05EF806606144491E966011605060906807439760D5F8A0002169426844
:2054AC006669126846EA01009062586A40F003005862BDE8F081C046000500203004002030
:2054CC00B0D70000A8D700001005002040040020A0D700002DE9F041064606F0B3FB2D4DF9
:2054EC008046A91991F8ED00421C002881F8ED204AD1294C04EB8604277807F03F003F2851
:20550C0001D0FFF7E7FF607800F03F003F2801D0FFF7E0FF668837F07F001AD1F80911D25B
:20552C004FF08054D4F8B801406901463046884704F5DC742068406B014630468847012861
:20554C00F8D121E005EB8605D5F80011012088471AE04FF08054D4F8B801C06901463046B4
:20556C008847D4F8B801406A014630468847D4F8B801C06A0146304688470121074A084897
:20558C00116001688908FCD3404606F057FBBDE8F081C046A8190020B8D7000028200860BB
:2055AC0028200840F8B52B4F57F81D0CC00850D22F4C29492CC9403C04F15C002CC068C9FA
:2055CC0068C00EC9012680E80E00FF23234D2448E16EC5F8AB3FB4F86A20C5F8FF6F00F0DE
:2055EC00FBFDA06F804742F60B3442F22B0045F8550C1C4945F8514C4FF480730B6000225B
:20560C0045F8212C45F83D6CC5F8B36FC5F8F36FD5F8F30F06F016FB57F81D1C124A41F025
:20562C00040147F81D1C116821F0F05141F03451116006F003FB0D48006804F075FA06F0E5
:20564C000DFA06F01CFA04F089FA06F00AFA06F019FAF8BD2D1009402CDB000055500C407E
:20566C0000000E4000100E40003009402C200940B01D0020294A2DE9F04180460126284860
:20568C0016600768002FFCD0294C2A4FC020443C206007F1080001682348890804D20168AC
:2056AC00090C41F0F00100E072211E4D85F85412002111638768384601F0A0FC4046394652
:2056CC00FFF7E8FC1C48B038816D40F20F226FF31F418A4212D901680068C1F30363C0F330
:2056EC00034003B15B1E072805D006280EBF0720801C00F00F0043EA001028703846FEF725
:20570C007BFD0E4814380068C1680220884740202060064F3E60BDE8F081C0461010094089
:20572C009402224302600840AC3F00509404604244600C40A83F00506C130050B401001088
:20574C007FB53048067804F0CFFD244D0028E86028D005F09FF9224A05F14C00062103F025
:20576C008BFD2048204C01682088D0B11F480068014216D01E480068014204D11D48006884
:20578C00008801420DD01E48EE23046800930AA2019206230293194B1A88174B186802A355
:2057AC00A0472E7000907FBD646174615F736572766963652E6300C052656769737465720C
:2057CC00656420736572766963652C202564206174747269627574657300C046A41B0020C2
:2057EC0088D9000024DD000092DC0000400500003C050000440500003CDD0000840500005C
:20580C0034DD0000200500202B4AF0B538CAADF11C0D02A938C10CCA4FF0805681E80C003F
:20582C0084684568D6F8D0112068C9688847216822488A6B10408863206840F2F2714164A7
:20584C0095F83C0095F83D202168C0100DEB8000806810434863684606F08CF91A4FDFF869
:20586C0064E0D6F8D0112B7FDFF854C06A7FA87F496857F823705EF82260AA695CF8203062
:20588C000D46206801993E433343A8470F490A1F106840F010001060086840F001000860EF
:2058AC00A07DFF2806D0E07DFF2803D0086840F44040086007B0F0BDC4D800000DF8FFFFDC
:2058CC00B0D80000A8D8000098D80000301000402DE9F041DFF8B080044698F800001F4637
:2058EC0015460E46ADF1380D012804D0FEF7B0FD4046012101704EB166603DB1A56006F0A4
:20590C00A1F9224A117819B106F098F9002038E0491CC9B2117006F091F901251FB96846D6
:20592C0005F0A2FD6F46386820607868E060387A2074F8686061386900B1A061002178225D
:20594C0004F1200001F020FB05A800212422082306F048F904F138008DF82C50002105AAA6
:20596C0006F03CF905A800212422082306F052F904F1700006490B94002205AB06F046F916
:20598C0020460EB0BDE8F081692000201630002003BA00002DE9F0470F46054638686C6894
:2059AC00D5F80880002852D006F04CF9D4F8881021B106F043F90320387448E001263E74C9
:2059CC00C4F8887006F03AF994F8A40038B194F88D202049D4F89C00114303F0CFFDD7F8D9
:2059EC00049006F02FF9824694F8D80050B919F0704F02D1042004F059FA022004F056FA48
:205A0C0084F8D860504606F019F9D8F80010486840F00200486028463946FFF7F1FCD8F81E
:205A2C000010486940F001004861207828B961686C34204606F0B6F810B13046BDE8F08780
:205A4C002846FFF73BFA2046002106F0ABF80020BDE8F08700000680F8B505F0F9FE05F031
:205A6C0009FF044604F00C000C2845D0E0081ED204F016FD234E376805460120014605F0E8
:205A8C003BF931686943884211D21F4C8220B0FBF7F0291A204606F0CDF8204606F0C6F8B7
:205AAC000120FCF7B9FE204605F0E8F825E0200922D21648610939BF016821F0010101680D
:205ACC0041F0010102460160D2F898004FF0805440F00300C2F89800D4F8B801806901462F
:205AEC0020208847D4F8B801094C806B2168804701202060206800E030BF05F0AFFE01F0EB
:205B0C001BFFF8BD14DD0000B41900208C2108402C2009402DE9F0414568876816460C46B1
:205B2C0006F090F80346A86B3246214630B1184606F084F84FF0FF30BDE8F081AA632963D2
:205B4C000024EC7718466C6306F078F806F07AF81D4E8046307820B9022004F0A7F901202E
:205B6C003070404606F06AF81849086840F4007008603968886B40F4FA60886368780028A9
:205B8C0018BF201C1ED1696805F1D40006F00AF8B8B9AC633968886B20F4FA60886306F001
:205BAC0051F80746307818B1022004F067F93470384606F043F81022696B286BEA77401AB5
:205BCC002863686BBDE8F0811730002030100040F8B50D46EEB2290824BF27494D40274B3B
:205BEC00B400DFF89CC0195900EA05020CEA020200F4E02C85EA0107BCF5E02F00EA070726
:205C0C0021EA0001C7F3006742EA010201D1510E14D300F4E0210F4310D002F4E027B7F534
:205C2C00A02707D0B7F5803704BF22F4003242F4A02203E022F4803242F4C0221A51114CC9
:205C4C00C10D04D3C5F38052A4F1D0018A55000E10D305F0F7FF290E03D201220021B240A6
:205C6C0002E00122B2401146236893431943216005F0E4FFF8BDC046006000A000100840A1
:205C8C00007F077FD02002409EB523482149234A10300860224917880968CFB1214A1268A4
:205CAC00114215D0204A1268114204D11F4A1268128811420CD01E4AFF271468009709A39B
:205CCC0001931C4F1C4B029018683A8801A3A0479EBDC046646174615F73657276696365A8
:205CEC002E6300C0526567697374657265642063616C6C6261636B7320746F206170706CA9
:205D0C0069636174696F6E2E2053747275637420257000C0AC1B0020A405002092DC00002A
:205D2C0024DD0000400500003C0500004405000034DD0000840500003CDD00009EB5214818
:205D4C00214A02602148016821480788CFB121480068014215D020480068014204D11F48D8
:205D6C000068008801420CD01D48E92709A3046800971C4F01931C4B02923A88186801A304
:205D8C00A0479EBD6C65645F736572766963652E6300C04652656769737465726564206308
:205DAC00616C6C6261636B7320746F206170706C69636174696F6E2E2053747275637420F0
:205DCC00257000C0FC1D0020A405002024DD000092DC0000400500003C0500004405000022
:205DEC0034DD0000840500003CDD00002DE9F0410E46294990461C4606AF8C4672680878BE
:205E0C00BB8851783F881278002502EB012242F62321521A29D0521E052A18D9921F0CD0E6
:205E2C00263A34D1072F30D8C7F10700984298BF83B2674407F1080121E0B84225DBC01B0C
:205E4C009842D8BF83B22380DCF804000BE0F06805F032FB80B2B84217DBC01B9842D8BF46
:205E6C0083B22380F06839180AE0082F0DD8C7F10800984298BF83B207EB0C010F31238087
:205E8C0040461A4600F0A8F903E0072501E025800A252846BDE8F081D41700201FB52048F0
:205EAC00204A052103F0E8F91F4801681F480088D0B11F480068014216D01E480068014229
:205ECC0004D11D480068008801420DD01D48DA230468009309A2019205230293184B1A880B
:205EEC00164B186801A3A04700901FBD6C65645F736572766963652E6300C046526567691B
:205F0C0073746572656420736572766963652C202564206174747269627574657300C0469B
:205F2C00001E0020BCD9000024DD000092DC0000400500003C050000440500003CDD00002B
:205F4C008405000034DD0000F8B505F07BFE224C0746A06910F4602F25D0A069400CC6B267
:205F6C00700807D2B00803D2F00828BF022602E0012600E00026751D68B202F001FAA1697E
:205F8C0006F111020120904081433846A16105F055FE04EB8600876847B1606810A20CCAC2
:205FAC002946B84702E0384605F048FEA06918B10A48002105F0CCF9E07F80080BD3676938
:205FCC002FB1606808A20CCA6FF00101B847E07F00F0FD00E077F8BDE42E00206C2E0020E9
:205FEC0000000000000000080000000000000080264838B550380468B4F1FF3F08BF0024F0
:20600C0005F01EFA22481749002510380560012008601549086002F0D1FA1448006820B12A
:20602C00134800682046FFF725FB124812490560124C0A686FF35B4244EA0200086010493B
:20604C000868C0F30130012806D10A680D48104040F400320A6008600B4908680028FCD1D8
:20606C0038BDC0465C600C400822044380012843000120438C210840482003400000390176
:20608C0004000940FFFFFCFC0C0068426C13005094046042B0B501468B681C68E2694868D4
:2060AC002262520824D2D0F8A01049680A685D69D2F80415294206D01C68616A21F0020118
:2060CC006162C2F80455D2F8042519690A4231D01A68516A21F001015162D0F8A0104968F0
:2060EC001A6909683830C1F8042505F04BFDB0BD1C68626922F001026261D0F88870B7B955
:20610C00626822F0020262601C68626A22F003026262D0F8A0005F6944681A69236847EA8B
:20612C000200C3F80405084604F004FBB0BD0846FEF7C4FEB0BD7047F0B520480127F84247
:20614C0001D002F02FFC204D204F214EBD4206D203CD0478A4003459401CA047F6E71D4821
:20616C00002800D08047164D164FBD4202D210CDA047FAE7F0BD03251BE0416808300A1C3D
:20618C002A400BD11A1C2A40AB4305D0046804300C600431043BF9D1131C05D0047801304F
:2061AC000C700131013BF9D1021C2A4001D0A84304300368002BE0D17047C046FFFFFFFFA7
:2061CC000000000000000000B0F7010030F8010038F7010059C50110002A4AD05FEA000CEA
:2061EC008B071CD1830722D1102A08D370B4103A78C978C0103AFBD270BC103238D0042AE0
:20620C002CD3082A05D30C2A24BF08C908C008C908C008C908C092072AD0920F22E00B78CC
:20622C000370491C401C521E22D08B07F7D1C30714D18307D8D0121F12D308C903801B0CF0
:20624C004380001D121FF8D20AE008C903701B0A43701B0A83701B0AC370001D121FF4D2CD
:20626C00121D05D00B780370491C401C521EF9D1604670472DE9F843002A894607464CBF1E
:20628C0047F6FF75151C002F08BF002032D03888002808BF002403D02A4600F0B1F90446FE
:2062AC00281B26DD388828B1291B484612A202F043FE0419B868E0B1D7F804802E1BB8F127
:2062CC00000F0DD0404605F0F7F8401DB04207DC291B484609A2434602F02EFE04192E1BA0
:2062EC00122E06DBBB68291B484606A202F024FE04192046BDE8F8833A2000C02225732227
:20630C002C2000C06C696E652025643A200070472DE9F04F09AF5FEA00089A46ADF1140D06
:20632C00D7F80490029297F800B0039137D0081C35D0101C33D0B9F1000F30D01948017895
:20634C0000242AE0A00038F800604FF6FF7708EB0005B7421DD0AF78DFB10298039A5146B5
:20636C0005F0EAF80190A0B1780807D3CDF80090019A30465B46012101F0BEF8A878800886
:20638C0007D3CDF800902888019A02215B4601F0B3F804480178641CE4B2A142D2DC05B0F6
:2063AC00BDE8F08F5C140020F8B5054604F008FB002808BF01223DD01F4A116EB2F86870A5
:2063CC00680805D308883843400828BF02222FD21A4C04F10C063068400838BF012227D3A9
:2063EC000120E06333685B08FCD26B083CBF00228A8007D3888047F0010702F16006A2F8B3
:20640C0068703168AA0834BF0022021CCA80EA0838BF0020088105F021FB05F030FB206885
:20642C0040F0400020602068002220F04000206005F050FA1046F8BD701D002000500C4053
:20644C002DE9F8432020EFF3118780F31188214CA068012105F08AFB4FF001094FF0000878
:20646C0065692168A4F81C906A1A2168A4F81E80461B401A904227D387F3118840464519AC
:20648C00361A4846294605F06DFBB042F7D92021EFF3118781F31188E18B012903D14046CC
:2064AC00294605F05FFBB0F1FF3F06D0A169801B814238BF081C411901E0A069291805F060
:2064CC004DFBA4F820902560A4F81C8087F31188BDE8F883780100202DE9F843DFF87C905F
:2064EC000F4604464FF0FF31484605F05BFBDFF870801D4800210AE0FF2A07D00368934232
:20650C0002D958F822600EB1002421E0491C1FB117F82120FE2AEFD10020206001266060EA
:20652C000546A0600EE0FF290BD0636806FA01F048F8214018430B4960601268204603F074
:20654C0071FA6D1C27B107EB85021178FE29EAD1484605F01BFB2046BDE8F883402F0020D1
:20656C00882D0020007FC767BC2B00202DE9F04107467C68BE6804F1F00004F07FFB1D492F
:20658C00306809688069000923D205F05BFB1A4D8046287820B1022003F070FC00202870DD
:2065AC00404605F04BFB32681449906B20F020009063086820F480700860206A616A25693A
:2065CC00626A401A2062216A2B4638469847BDE8F0814FF4FA70B0FBF1F1012998BF0121BB
:2065EC00F034204605F026FB204605F01FFBBDE8F081C04614DD0000183000203010004085
:20660C009EB513460C461F4A1D4912880988824206DB13A219460346204602F08DFC9EBD38
:20662C00194A1788814207DB04F038FB42681946204602F081FC9EBD002F08BF0BA2E9D0EB
:20664C000094002B48BF47F6FF73104F002101933C6802910E496A46A04702989EBDC04685
:20666C007B6D6F64756C652325647D007B6D6F64756C652D726F70653A25787D00C046C0E6
:20668C0054DD000056DD00008A05000050DD000001A10000F8B5204C0546E8B284F82A5038
:2066AC0004F0D8FEC6B2E06C002E0CBF1B4A1C4A4FF4E0212A4303F0B5F900200D3D11D0DF
:2066CC006D1E18D126B9E778AFB9012020710EE02779E6887FB1207184F82B00AEB100F02F
:2066EC00C9F912E0E7782EB92FB90120E07084F82B000AE017B9012807D0F8BDE07084F859
:20670C002B0002F07CFD04F07DFE04F12A010420022202F0CDFBF8BD2005002000000680C6
:20672C00000005802DE9F84303F0A0FF204C0025A5704FF6FF70A08202F090FF0121207036
:20674C0004F1A80003F0D6F9022104F1CC0003F0D1F9042104F1F00003F0CCF9042704F14B
